:0300000002087B78
:0C087B00787FE4F6D8FD75810B02084D73
:100865003F065B4F666D7D077F6F777C395E7971DB
:06087500FEFDFBF7EFDFC2
:10084D00E4F508F509F50B758901758C3C758AB0D1
:08085D00D2AFD2A9D28C80FEBB
:03000B00020800E8
:10080000C0E0C083C082C0D0758C3C758AB0050B37
:10081000E50B6414702EF50B0508E508B4070375A5
:100820000801D2A6E50890086593F580C2A6D2A774
:10083000E50990087593F580C2A70509E509B40696
:0D08400003750900D0D0D082D083D0E03203
:00000001FF
