:030000000209DC16
:0C09DC00787FE4F6D8FD75810902080060
:1009CC003F065B4F666D7D077F6F777C395E797173
:0409AA007F0A7E0042
:1009AE00D3EF9400EE940040147D6E7C00ED1D702C
:0D09BE00011CED4C70F7EF1F70E61E80E38A
:0109CB002209
:10080000D2A6E4F580C2A6D2A77580C0C2A775B0F3
:10081000FE7508F0E5B05208E50864F0605712096B
:10082000AA85B0085308F0E50864F060EB85B008CD
:10083000E5082482601B24C0601224E0600924F0D3
:100840007012750901800D75090280087509038011
:1008500003750904E508B4F0097F057E001209AEAE
:1008600080F2E508B4F0C0D2A6E5099009CB93F573
:1008700080C2A680ED75B0FD85B0085308F0E5088C
:1008800064F060571209AA85B0085308F0E50864BF
:10089000F060EB85B008E5082483601B24C060127B
:1008A00024E0600924F07012750905800D750906B1
:1008B00080087509078003750908E508B4F0097F09
:1008C000057E001209AE80F2E508B4F0C0D2A6E5BC
:1008D000099009CB93F580C2A680ED75B0FB85B079
:1008E000085308F0E50864F060571209AA85B008BB
:1008F0005308F0E50864F060EB85B008E50824854E
:10090000601B24C0601224E0600924F07012750995
:1009100009800D75090A800875090B800375090C9B
:10092000E508B4F0097F057E001209AE80F2E50803
:10093000B4F0C0D2A6E5099009CB93F580C2A68099
:10094000ED75B0F785B0085308F0E50864F0700362
:1009500002080E1209AA85B0085308F0E50864F0F1
:1009600060E885B008E5082489601B24C060122473
:10097000E0600924F0701275090D800D75090E8074
:100980000875090F8003750910E508B4F0097F05A3
:100990007E001209AE80F2E508B4F0C0D2A6E509E7
:0A09A0009009CB93F580C2A680ED0C
:00000001FF
