:030000000208C231
:0C08C200787FE4F6D8FD75810C02080078
:1008B2003F065B4F666D7D077F6F777C395E79718E
:1008000012089EE50AB4142CE4F50A0509E509B4BA
:100810006403E4F509E50975F06484F508E50975F4
:10082000F06484E5F075F00A84F50BE50975F00ACB
:100830008485F00CAB0CAD0BAF081208467F647ECC
:060840000012088080BDDB
:10088000D3EF9400EE940040147D647C00ED1D7065
:0D089000011CED4C70F7EF1F70E61E80E3B9
:01089D002238
:10084600D2A6EF9008B293F580C2A67580FFD2A714
:100856007580FBC2A7D2A6ED93F580C2A67580FF70
:10086600D2A77580FEC2A7D2A6EB93F580C2A67565
:0A08760080FFD2A77580FDC2A72203
:10089E00C2A7C2A6758901758C3C758AB0D2AFD23B
:0408AE00A9D28C221D
:03000B000208CE1A
:0908CE00758C3C758AB0050A32F4
:00000001FF
