:03000000020E46A7
:0C0E4600787FE4F6D8FD758126020800D4
:0A0E5E003F065B4F666D7D077F6F56
:100C8E00AA05D2A6EF900E5E93F580C2A67580FFE0
:100C9E00D2A77580FEC2A77F017E00120CDBD2A602
:100CAE00EA93F580C2A67580FFD2A77580FDC2A714
:100CBE007F017E00120CDBD2A6EB93F580C2A675E7
:0D0CCE0080FFD2A77580FBC2A77F017E00CA
:100CDB00D3EF9400EE940040147D6E7C00ED1D70FC
:0D0CEB00011CED4C70F7EF1F70E61E80E35A
:010CF80022D9
:100E1C00C2A7C2A6E4F508751580751451751301A7
:100E2C00F512F50EF50DF50CF50BD2AFD28CD2A94F
:0A0E3C00758901758C3C758AB0229F
:10080000120E1C120A1B120E52E508641460030239
:1008100009E9F508FAF9F8E50E2401F50EEA350DB7
:10082000F50DE9350CF50CE8350BF50B7F807E51A5
:100830007D017C00AB0EAA0DA90CF8C3120BAA70A7
:1008400008F50EF50DF50CF50BE47BA07A8CF9F8A4
:10085000AF0EAE0DAD0CAC0B120DD88F1DE47BA00E
:100860007A8CF9F8AF0EAE0DAD0CAC0B120DD8AC06
:1008700000AD01AE02AF03E47B107A0EF9F8120D61
:10088000D88F1EE47B107A0EF9F8AF0EAE0DAD0CCA
:10089000AC0B120DD8AC00AD01AE02AF03E47B5837
:1008A0007A02F9F8120DD88F18E47B107A0EF9F855
:1008B000AF0EAE0DAD0CAC0B120DD8AC00AD01AE51
:1008C00002AF03E47B587A02F9F8120DD8AC00AD00
:1008D00001AE02AF03E47B3CFAF9F8120DD88F1990
:1008E000E47B3CFAF9F8AF0EAE0DAD0CAC0B120D7B
:1008F000D8AC00AD01AE02AF03E47B0AFAF9F812FE
:100900000DD88F10E47B0AFAF9F8AF0EAE0DAD0CDE
:10091000AC0B120DD8AF038F11E47BA07A8CF9F8E1
:10092000AF15AE14AD13AC12120DD88F09E47BA035
:100930007A8CF9F8AF15AE14AD13AC12120DD8AC19
:1009400000AD01AE02AF03E47B107A0EF9F8120D90
:10095000D88F0AE47B107A0EF9F8AF15AE14AD13F8
:10096000AC12120DD8AC00AD01AE02AF03E47B585F
:100970007A02F9F8120DD88F1FE47B107A0EF9F87D
:10098000AF15AE14AD13AC12120DD8AC00AD01AE64
:1009900002AF03E47B587A02F9F8120DD8AC00AD2F
:1009A00001AE02AF03E47B3CFAF9F8120DD88F20B8
:1009B000E47B3CFAF9F8AF15AE14AD13AC12120D8E
:1009C000D8AC00AD01AE02AF03E47B0AFAF9F8122D
:1009D0000DD88F1BE47B0AFAF9F8AF15AE14AD13EE
:1009E000AC12120DD8AF038F1C120CF9E50F30E0DA
:1009F00015852024851B25851C26AB1FAD0AAF0954
:100A0000120D93020803851924851025851126AB44
:0B0A100018AD1EAF1D120D4E020803B2
:03000B00020E687A
:090E6800758C3C758AB005083256
:100D4E00120C8ED2A6E52493F580C2A67580FFD232
:100D5E00A77580F7120CD5D2A6E52593F580C2A60D
:100D6E007580FFD2A77580EF120CD5D2A6E526931B
:100D7E00F580C2A67580FFD2A77580DFC2A77F015E
:050D8E007E00020CDBF9
:100D9300120C8ED2A6E52493F580C2A67580FFD2ED
:100DA300A77580F7120CD5D2A6E52593F580C2A6C8
:100DB3007580FFD2A77580EF120CD5D2A6E52693D6
:100DC300F580C2A67580FFD2A77580DFC2A77F0119
:050DD3007E00020CDBB4
:0C0E5200D2A6EF900E5E93F580C2A6229F
:100A1B0075B0FE85B0165316F0E51664F060777F5F
:100A2B000A7E00120CDB85B0165316F0E51664F047
:100A3B0060E785B016E5162482603524C060192462
:100A4B00E0600A24F07041E50E24018004E50E24D9
:100A5B003CF50EE4350D800AE50E2410F50EE50D80
:100A6B00340EF50DE4350CF50CE4350BF50B801855
:100A7B00E51524FFF515E51434FFF514E51334FFE4
:100A8B00F513E51234FFF512E51664F0609E85B0A0
:100A9B00165316F080F275B0FD85B0165316F0E5BF
:100AAB001664F07003020BA97F0A7E00120CDB8523
:100ABB00B0165316F0E51664F0606285B016E516B5
:100ACB002483603624C0602E24E0601024F0703F35
:100ADB00E51524C4F515E51434FF800AE51524F05B
:100AEB00F515E51434F1F514E51334FFF513E512A0
:100AFB0034FFF5128019050F8015E50E240AF50E4B
:100B0B00E4350DF50DE4350CF50CE4350BF50BE583
:100B1B001664F060A085B0165316F080F275B0FB2A
:100B2B0085B0165316F0E51664F060367F057E002F
:100B3B00120CDB85B0165316F0E51664F060E785F2
:100B4B00B016E5162485600C24C0600824E0600410
:100B5B0024F07000E51664F060DF85B0165316F0D4
:100B6B0080F275B0F785B0165316F0E51664F07089
:100B7B0003020AAA7F057E00120CDB85B016531602
:100B8B00F0E51664F060E485B016E51624197000E4
:0F0B9B00E51664F060EB85B0165316F080F22279
:100CF900E515243CFFE43514FEE43513FDE4351213
:100D0900FCAB0EAA0DA90CA80BC3120BAA50067FA7
:100D190001C00780047F00C007AF15AE14AD13AC46
:100D290012AB0EAA0DA90CA80BD3120BAA40047E74
:100D39000180027E00D0E05E600AC2B7120CD7D2F1
:050D4900B7120CD722D7
:100DD800C2D5E830E70FB2D5E4C39BFBE49AFAE446
:100DE80099F9E498F8EC30E717B2D5120E0E120B09
:100DF800FCE4C39BFBE49AFAE499F9E498F88003CD
:100E0800120BFC30D50DE4C39FFFE49EFEE49DFD6C
:040E1800E49CFC2238
:100BAA00EB9FF5F0EA9E42F0E99D42F0EC6480C8C2
:060BBA0064809845F02262
:100BC00075F008758200EF2FFFEE33FECD33CDCCEC
:100BD00033CCC58233C5829BED9AEC99E58298406F
:100BE0000CF582EE9BFEED9AFDEC99FC0FD5F0D64C
:100BF000E4CEFBE4CDFAE4CCF9A88222B800C1B976
:100C00000059BA002DEC8BF084CFCECDFCE5F0CBB3
:100C1000F97818EF2FFFEE33FEED33FDEC33FCEBEC
:100C200033FB10D703994004EB99FB0FD8E5E4F9A7
:100C3000FA227818EF2FFFEE33FEED33FDEC33FC94
:100C4000C933C910D7059BE99A4007EC9BFCE99A88
:100C5000F90FD8E0E4C9FAE4CCFB2275F010EF2FCD
:100C6000FFEE33FEED33FDCC33CCC833C810D707CD
:100C70009BEC9AE899400AED9BFDEC9AFCE899F808
:0E0C80000FD5F0DAE4CDFBE4CCFAE4C8F9229B
:00000001FF
