:0300000002092FC3
:0C092F00787FE4F6D8FD7581180208807E
:0A093B003F065B4F666D7D077F6F7E
:10091400C2A7C2A6E4F508F50BF509D2AFD28CD272
:0B092400A9758901758C3C758AB02212
:0608F000C2A77F017E009B
:1008F600D3EF9400EE940040147D6E7C00ED1D70E5
:0D090600011CED4C70F7EF1F70E61E80E342
:0109130022C1
:10088000120914E50864147053F508050BE50B759F
:10089000F00A84F50CE50B75F00A8485F00DE50B84
:1008A000643C70380509F50BE50975F00A84F50E0E
:1008B000E50975F00A8485F00FE509B43C1EE4F5FE
:1008C00009050AE50A75F00A84F511E50A75F00ACA
:1008D0008485F012E50AB41803E4F50A850F16853D
:1008E0000C17850D18AB0EAD12AF111208008093D6
:03000B00020945A2
:09094500758C3C758AB00508327E
:10080000AA05D2A6EF90093B93F580C2A67580FF9A
:10081000D2A77580FE1208F0D2A6EA93F580C2A690
:100820007580FFD2A77580FD1208F0D2A6EB93F574
:1008300080C2A67580FFD2A77580FB1208F0D2A6F1
:10084000E51693F580C2A67580FFD2A77580F712D2
:1008500008F0D2A6E51793F580C2A67580FFD2A74F
:100860007580EF1208F0D2A6E51893F580C2A67540
:1008700080FFD2A77580DFC2A77F017E000208F645
:00000001FF
