:030000000208A350
:0C08A300787FE4F6D8FD7581090208009A
:100892003F065B4F666D7D077F6F777C395E7971AE
:0108A2000055
:10087400D3EF9400EE940040147D6E7C00ED1D7067
:0D088400011CED4C70F7EF1F70E61E80E3C5
:010891002244
:10080000C2A6D2A6E4F580C2A6D2A7F580C2A7757B
:10081000B0FE85B0085308F0E50864F060F17F058C
:100820007E0012087485B0085308F0E50864F06093
:10083000E785B008E5082482601B24C0601224E02C
:10084000600924F07012750901800D750902800895
:100850007509038003750904E50864F0600885B034
:10086000085308F080F2D2A6E50990089293F5802B
:04087000C2A680B7E5
:00000001FF
