:030000000208A94A
:0C08A900787FE4F6D8FD75810A02080093
:100899003F065B4F666D7D077F6F777C395E7971A7
:10080000750A01E4F509758901758C3C758AB0D2C9
:10081000AFD2A9D28C7508FE850890D2A69008990F
:1008200093F580C2A6D2A77580C0C2A77FE87E03D9
:1008300012087BAF087801EF08800123D8FDF50886
:04084000F59080E8C7
:10087B00D3EF9400EE940040147D6E7C00ED1D7060
:0D088B00011CED4C70F7EF1F70E61E80E3BE
:01089800223D
:03000B00020844A4
:10084400C0E0C083C082C0D0758C3C758AB00509F5
:10085400E509B42819750900D2A6E50A9008999308
:10086400F580C2A6050AE50AB41003750A00D0D0C3
:07087400D082D083D0E032F6
:00000001FF
