:0300000002088370
:0C088300787FE4F6D8FD758109020800BA
:100858003F065B4F666D7D077F6F777C395E7971E8
:06086800FEFDFBF7EFDFCF
:1008000012086ED2A7E50890085893F5800508C233
:10081000A7E508B40603E4F5087FE87E0312083A6A
:10082000D2A6E50990085893F5800509C2A6E4F51B
:0A083000097FE87E0312083A80C930
:10086E00E4F508F509758901758C3C758AB0D2AF2F
:05087E00D2A9D28C227A
:03000B0002088F59
:07088F00758C3C758AB03244
:10083A00D3EF9400EE940040147D6E7C00ED1D70A1
:0D084A00011CED4C70F7EF1F70E61E80E3FF
:01085700227E
:00000001FF
