:03000000020A9E53
:0C0A9E00787FE4F6D8FD758146020AE579
:100CD600C0F9A4B0999282F880908883C6A18E86C6
:100CE600BF3F065B4F666D7D077F6F777C395E7908
:0C0CF6007140BF86DBCFE6EDFD87FFEF0D
:100D2D00013C01013E010138000130000D101F1F73
:100D3D001D1F1E1F1E1F1F1E1F1E1F0D1E1F1F1CD2
:0A0D4D001F1E1F1E1F1F1E1F1E1F6A
:10080000D2AFD2A9D28C758901758C4CE4F58A756A
:100810002E17750F3B751D31750A0C750838750953
:100820000D750D07750ED8753405752D0E750C03F5
:10083000E52E75F00A84F53BE52E75F00A8485F007
:1008400036E50F75F00A84F532E50F75F00A8485F8
:10085000F02CE51D75F00A84F53FE51D75F00A845E
:1008600085F03AE53475F00A84F53DE53475F00A13
:100870008485F037E52D75F00A84F539E52D75F09E
:100880000A8485F033850C40E50A75F00A84F53159
:10089000E50A75F00A8485F02BE50875F00A84F501
:1008A00035E50875F00A8485F02FE50975F00A84AE
:1008B000F538E50975F00A8485F030120D9F120DA8
:1008C000BA120C27120B2A120C64E53EB401031273
:1008D0000A0AE53E6402700E120A0AE51D20E006CF
:1008E000D291D292B290E53EB4031285334475455D
:1008F00010854046AB39AD37AF3D120A19E53E646D
:1009000004701D853344754510854046AB39AD37BD
:10091000AF3D120A19E51D20E006D290D292B291A5
:10092000E53EB40512852F44853845853046AB3504
:10093000AD2BAF31120A19E53E6406701D852F44B8
:10094000853845853046AB35AD2BAF31120A19E5F8
:100950001D20E006D290D291B292120CA1120D028B
:030960000208305A
:03000B00020BD70E
:100BD700C0E0C0F0C083C082C0D075D000C000C0E4
:100BE70001C002C003C004C005C006C00775890163
:100BF700758C4C758A00050BE50BB41408750B0052
:100C0700051D120963D007D006D005D004D003D044
:100C170002D001D000D0D0D082D083D0F0D0E03243
:10096300E51D643C6003020A09F51D050FE50F64EC
:100973003C6003020A09F50F052EE52E6418600397
:10098300020A09F52E052D050CE50CB40803E4F560
:100993000CE50E5403700EAE0DAF0EFC7D64120B0E
:1009A30082ED4C700FAE0DAF0E7C017D90120B8269
:1009B300ED4C702974102534F8E62401FFE433FE6E
:1009C300E52D6F7001EE703EF52D0534E534640DB1
:1009D3007034F534050EE50E7002050D22741E25E4
:1009E30034F8E62401FFE433FEE52DB50718E4B53A
:1009F3000614F52D0534E534B40D0BE4F534050E7A
:070A0300E50E7002050D2253
:100D9F0020B7177FC87E00120D6020B70D053E30BB
:0B0DAF00B7FDE53EB40703753E0122CE
:100DBA0020B4177F0A7E00120D6020B40D053C3066
:0B0DCA00B4FDE53CB40403753C0122BD
:0F0A0A00852C44853F45853A46AB32AD36AF3B30
:100A19008D428B43C2A6EF900CD693F580D2A6C225
:100A2900A6C2A7758001120D58C2A6E542900CD640
:100A390093F580D2A6C2A6758002120D58C2A6E50A
:100A490043900CD693F580D2A6C2A6C2A77580049E
:100A5900120D58E544900CD693F580D2A6C2A6751E
:100A69008008120D58C2A6E545900CD693F580D2A0
:100A7900A6C2A6C2A7758010120D58E546900CD6DD
:100A890093F580D2A6C2A6758020D2A7C2A77F01FE
:050A99007E00020D606B
:100CA100E50FB43B1BE51D6435600BE51D64376042
:100CB10005E51DB4390AC2A3120D5CD2A3120D5C65
:100CC100E50FB43B0FE51DB43B0AC2A3120D5CD284
:050CD100A3120D5C22DE
:100D0200E52E650A7024E50FB5081FE51DB5091A21
:100D120020E017C3941E5012C2A37F147E00120D4E
:0B0D220060D2A37F147E00120D60223F
:100C2700E53E64027036E53CB40116AF2E120DD5D1
:100C37008F2EE52EB41803E4F52EAF2E120D7E8FFE
:100C47002EE53CB40216AF0F120DD58F0FE50FB48A
:0D0C57003C03E4F50FAF0F120D7E8F0F224E
:100B2A00E53E64047051E53CB40116AF34120DD5AC
:100B3A008F34E534B40D03753401AF34120D7E8F52
:100B4A0034E53CB40216AF2D120DD58F2DE52DB428
:100B5A002003E4F52DAF2D120D7E8F2DE53CB40355
:100B6A0016AF0C120DD58F0CE50CB40803E4F50C86
:080B7A00AF0C120D7E8F0C225E
:100C6400E53E64067036E53CB40116AF0A120DD5B4
:100C74008F0AE50AB41803E4F50AAF0A120D7E8F51
:100C84000AE53CB40216AF08120DD58F08E508B486
:0D0C94003C03E4F508AF08120D7E8F082226
:100DD5008F4120B50F7FC87E00120D6020B5050537
:070DE5004130B5FDAF4122D2
:100D7E008F4120B6197FC87E00120D6020B60F1568
:100D8E004130B6FDE541C394005003E4F541AF4157
:010D9E002232
:080D5800D2A7C2A77F017E00B3
:100D6000D3EF9400EE940040147D507C00ED1D7094
:0D0D7000011CED4C70F7EF1F70E61E80E3D4
:010D7D002253
:100AAA00020800E493A3F8E493A34003F68001F25A
:100ABA0008DFF48029E493A3F85407240CC8C3334D
:100ACA00C4540F4420C8834004F456800146F6DF1C
:100ADA00E4800B0102040810204080900D2DE47E72
:100AEA00019360BCA3FF543F30E509541FFEE49311
:100AFA00A360010ECF54C025E060A840B8E493A3D8
:100B0A00FAE493A3F8E493A3C8C582C8CAC583CA02
:100B1A00F0A3C8C582C8CAC583CADFE9DEE780BEBA
:010D5700009B
:100B8200BC000BBE0029EF8DF084FFADF022E4CC57
:100B9200F875F008EF2FFFEE33FEEC33FCEE9DEC20
:100BA200984005FCEE9DFE0FD5F0E9E4CEFD22ED66
:100BB200F8F5F0EE8420D21CFEADF075F008EF2FB0
:100BC200FFED33FD4007985006D5F0F222C398FDA1
:050BD2000FD5F0EA223E
:00000001FF
